{
  "contractName": "AuroraSocial",
  "abi": [
    {
      "inputs": [],
      "stateMutability": "nonpayable",
      "type": "constructor"
    },
    {
      "anonymous": false,
      "inputs": [
        {
          "indexed": true,
          "internalType": "address",
          "name": "from",
          "type": "address"
        },
        {
          "indexed": false,
          "internalType": "uint256",
          "name": "amount",
          "type": "uint256"
        }
      ],
      "name": "Deposit",
      "type": "event"
    },
    {
      "inputs": [
        {
          "internalType": "uint256",
          "name": "",
          "type": "uint256"
        },
        {
          "internalType": "uint256",
          "name": "",
          "type": "uint256"
        }
      ],
      "name": "Contrato",
      "outputs": [
        {
          "internalType": "uint256",
          "name": "depositedAprove",
          "type": "uint256"
        },
        {
          "internalType": "uint256",
          "name": "depositedDisaprove",
          "type": "uint256"
        },
        {
          "internalType": "address",
          "name": "wallet",
          "type": "address"
        }
      ],
      "stateMutability": "view",
      "type": "function",
      "constant": true
    },
    {
      "inputs": [
        {
          "internalType": "uint256",
          "name": "",
          "type": "uint256"
        },
        {
          "internalType": "uint256",
          "name": "",
          "type": "uint256"
        }
      ],
      "name": "NewBet",
      "outputs": [
        {
          "internalType": "string",
          "name": "date",
          "type": "string"
        },
        {
          "internalType": "address",
          "name": "wallet",
          "type": "address"
        }
      ],
      "stateMutability": "view",
      "type": "function",
      "constant": true
    },
    {
      "inputs": [
        {
          "internalType": "uint256",
          "name": "",
          "type": "uint256"
        },
        {
          "internalType": "uint256",
          "name": "",
          "type": "uint256"
        }
      ],
      "name": "NewCode",
      "outputs": [
        {
          "internalType": "string",
          "name": "date",
          "type": "string"
        },
        {
          "internalType": "address",
          "name": "wallet",
          "type": "address"
        }
      ],
      "stateMutability": "view",
      "type": "function",
      "constant": true
    },
    {
      "inputs": [
        {
          "internalType": "uint256",
          "name": "",
          "type": "uint256"
        },
        {
          "internalType": "uint256",
          "name": "",
          "type": "uint256"
        }
      ],
      "name": "NewPost",
      "outputs": [
        {
          "internalType": "string",
          "name": "date",
          "type": "string"
        },
        {
          "internalType": "address",
          "name": "wallet",
          "type": "address"
        }
      ],
      "stateMutability": "view",
      "type": "function",
      "constant": true
    },
    {
      "inputs": [
        {
          "internalType": "uint256",
          "name": "",
          "type": "uint256"
        },
        {
          "internalType": "uint256",
          "name": "",
          "type": "uint256"
        }
      ],
      "name": "NewVote",
      "outputs": [
        {
          "internalType": "string",
          "name": "date",
          "type": "string"
        },
        {
          "internalType": "address",
          "name": "wallet",
          "type": "address"
        }
      ],
      "stateMutability": "view",
      "type": "function",
      "constant": true
    },
    {
      "inputs": [
        {
          "internalType": "uint256",
          "name": "",
          "type": "uint256"
        }
      ],
      "name": "contratoBet",
      "outputs": [
        {
          "internalType": "string",
          "name": "title",
          "type": "string"
        },
        {
          "internalType": "string",
          "name": "bet",
          "type": "string"
        },
        {
          "internalType": "string",
          "name": "resultA",
          "type": "string"
        },
        {
          "internalType": "string",
          "name": "resultB",
          "type": "string"
        },
        {
          "internalType": "string",
          "name": "date",
          "type": "string"
        },
        {
          "internalType": "uint256",
          "name": "comments",
          "type": "uint256"
        },
        {
          "internalType": "address",
          "name": "wallet",
          "type": "address"
        }
      ],
      "stateMutability": "view",
      "type": "function",
      "constant": true
    },
    {
      "inputs": [
        {
          "internalType": "uint256",
          "name": "",
          "type": "uint256"
        }
      ],
      "name": "contratoCode",
      "outputs": [
        {
          "internalType": "string",
          "name": "title",
          "type": "string"
        },
        {
          "internalType": "string",
          "name": "code",
          "type": "string"
        },
        {
          "internalType": "uint256",
          "name": "comments",
          "type": "uint256"
        },
        {
          "internalType": "address",
          "name": "wallet",
          "type": "address"
        }
      ],
      "stateMutability": "view",
      "type": "function",
      "constant": true
    },
    {
      "inputs": [
        {
          "internalType": "uint256",
          "name": "",
          "type": "uint256"
        }
      ],
      "name": "contratoPost",
      "outputs": [
        {
          "internalType": "string",
          "name": "title",
          "type": "string"
        },
        {
          "internalType": "string",
          "name": "content",
          "type": "string"
        },
        {
          "internalType": "uint256",
          "name": "comments",
          "type": "uint256"
        },
        {
          "internalType": "address",
          "name": "wallet",
          "type": "address"
        }
      ],
      "stateMutability": "view",
      "type": "function",
      "constant": true
    },
    {
      "inputs": [
        {
          "internalType": "uint256",
          "name": "",
          "type": "uint256"
        }
      ],
      "name": "contratoVote",
      "outputs": [
        {
          "internalType": "string",
          "name": "title",
          "type": "string"
        },
        {
          "internalType": "string",
          "name": "question",
          "type": "string"
        },
        {
          "internalType": "string",
          "name": "optionA",
          "type": "string"
        },
        {
          "internalType": "string",
          "name": "optionB",
          "type": "string"
        },
        {
          "internalType": "uint256",
          "name": "comments",
          "type": "uint256"
        },
        {
          "internalType": "address",
          "name": "wallet",
          "type": "address"
        }
      ],
      "stateMutability": "view",
      "type": "function",
      "constant": true
    },
    {
      "inputs": [],
      "name": "owner",
      "outputs": [
        {
          "internalType": "address",
          "name": "",
          "type": "address"
        }
      ],
      "stateMutability": "view",
      "type": "function",
      "constant": true
    },
    {
      "inputs": [],
      "name": "tCommentBet",
      "outputs": [
        {
          "internalType": "uint256",
          "name": "",
          "type": "uint256"
        }
      ],
      "stateMutability": "view",
      "type": "function",
      "constant": true
    },
    {
      "inputs": [],
      "name": "tCommentCode",
      "outputs": [
        {
          "internalType": "uint256",
          "name": "",
          "type": "uint256"
        }
      ],
      "stateMutability": "view",
      "type": "function",
      "constant": true
    },
    {
      "inputs": [],
      "name": "tCommentPost",
      "outputs": [
        {
          "internalType": "uint256",
          "name": "",
          "type": "uint256"
        }
      ],
      "stateMutability": "view",
      "type": "function",
      "constant": true
    },
    {
      "inputs": [],
      "name": "tCommentVote",
      "outputs": [
        {
          "internalType": "uint256",
          "name": "",
          "type": "uint256"
        }
      ],
      "stateMutability": "view",
      "type": "function",
      "constant": true
    },
    {
      "inputs": [],
      "name": "totalBet",
      "outputs": [
        {
          "internalType": "uint256",
          "name": "",
          "type": "uint256"
        }
      ],
      "stateMutability": "view",
      "type": "function",
      "constant": true
    },
    {
      "inputs": [],
      "name": "totalCode",
      "outputs": [
        {
          "internalType": "uint256",
          "name": "",
          "type": "uint256"
        }
      ],
      "stateMutability": "view",
      "type": "function",
      "constant": true
    },
    {
      "inputs": [],
      "name": "totalContrato",
      "outputs": [
        {
          "internalType": "uint256",
          "name": "",
          "type": "uint256"
        }
      ],
      "stateMutability": "view",
      "type": "function",
      "constant": true
    },
    {
      "inputs": [
        {
          "internalType": "uint256",
          "name": "",
          "type": "uint256"
        }
      ],
      "name": "totalPersona",
      "outputs": [
        {
          "internalType": "uint256",
          "name": "id",
          "type": "uint256"
        },
        {
          "internalType": "address",
          "name": "ownerContract",
          "type": "address"
        },
        {
          "internalType": "uint256",
          "name": "totalDeposited",
          "type": "uint256"
        },
        {
          "internalType": "uint256",
          "name": "totalAprove",
          "type": "uint256"
        },
        {
          "internalType": "uint256",
          "name": "totalDisaprove",
          "type": "uint256"
        },
        {
          "internalType": "uint256",
          "name": "like",
          "type": "uint256"
        },
        {
          "internalType": "string",
          "name": "type_",
          "type": "string"
        }
      ],
      "stateMutability": "view",
      "type": "function",
      "constant": true
    },
    {
      "inputs": [],
      "name": "totalPost",
      "outputs": [
        {
          "internalType": "uint256",
          "name": "",
          "type": "uint256"
        }
      ],
      "stateMutability": "view",
      "type": "function",
      "constant": true
    },
    {
      "inputs": [],
      "name": "totalVote",
      "outputs": [
        {
          "internalType": "uint256",
          "name": "",
          "type": "uint256"
        }
      ],
      "stateMutability": "view",
      "type": "function",
      "constant": true
    },
    {
      "inputs": [
        {
          "internalType": "string",
          "name": "type_post",
          "type": "string"
        },
        {
          "internalType": "string",
          "name": "title",
          "type": "string"
        },
        {
          "internalType": "string",
          "name": "content",
          "type": "string"
        }
      ],
      "name": "setPost",
      "outputs": [],
      "stateMutability": "nonpayable",
      "type": "function"
    },
    {
      "inputs": [
        {
          "internalType": "uint256",
          "name": "contrato",
          "type": "uint256"
        },
        {
          "internalType": "string",
          "name": "comment",
          "type": "string"
        }
      ],
      "name": "setPostComment",
      "outputs": [],
      "stateMutability": "nonpayable",
      "type": "function"
    },
    {
      "inputs": [
        {
          "internalType": "uint256",
          "name": "contrato",
          "type": "uint256"
        }
      ],
      "name": "getPost",
      "outputs": [
        {
          "internalType": "string",
          "name": "",
          "type": "string"
        },
        {
          "internalType": "string",
          "name": "",
          "type": "string"
        },
        {
          "internalType": "address",
          "name": "",
          "type": "address"
        }
      ],
      "stateMutability": "view",
      "type": "function",
      "constant": true
    },
    {
      "inputs": [
        {
          "internalType": "uint256",
          "name": "contrato",
          "type": "uint256"
        },
        {
          "internalType": "uint256",
          "name": "comentario",
          "type": "uint256"
        }
      ],
      "name": "getPostComment",
      "outputs": [
        {
          "internalType": "string",
          "name": "",
          "type": "string"
        },
        {
          "internalType": "address",
          "name": "",
          "type": "address"
        }
      ],
      "stateMutability": "view",
      "type": "function",
      "constant": true
    },
    {
      "inputs": [
        {
          "internalType": "string",
          "name": "type_post",
          "type": "string"
        },
        {
          "internalType": "string",
          "name": "title",
          "type": "string"
        },
        {
          "internalType": "string",
          "name": "content",
          "type": "string"
        }
      ],
      "name": "setCode",
      "outputs": [],
      "stateMutability": "nonpayable",
      "type": "function"
    },
    {
      "inputs": [
        {
          "internalType": "uint256",
          "name": "contrato",
          "type": "uint256"
        },
        {
          "internalType": "string",
          "name": "comment",
          "type": "string"
        }
      ],
      "name": "setCodeComment",
      "outputs": [],
      "stateMutability": "nonpayable",
      "type": "function"
    },
    {
      "inputs": [
        {
          "internalType": "uint256",
          "name": "contrato",
          "type": "uint256"
        }
      ],
      "name": "getCode",
      "outputs": [
        {
          "internalType": "string",
          "name": "",
          "type": "string"
        },
        {
          "internalType": "string",
          "name": "",
          "type": "string"
        },
        {
          "internalType": "address",
          "name": "",
          "type": "address"
        }
      ],
      "stateMutability": "view",
      "type": "function",
      "constant": true
    },
    {
      "inputs": [
        {
          "internalType": "uint256",
          "name": "contrato",
          "type": "uint256"
        },
        {
          "internalType": "uint256",
          "name": "comentario",
          "type": "uint256"
        }
      ],
      "name": "getCodeComment",
      "outputs": [
        {
          "internalType": "string",
          "name": "",
          "type": "string"
        },
        {
          "internalType": "address",
          "name": "",
          "type": "address"
        }
      ],
      "stateMutability": "view",
      "type": "function",
      "constant": true
    },
    {
      "inputs": [
        {
          "internalType": "string",
          "name": "type_post",
          "type": "string"
        },
        {
          "internalType": "string",
          "name": "title",
          "type": "string"
        },
        {
          "internalType": "string",
          "name": "question",
          "type": "string"
        },
        {
          "internalType": "string",
          "name": "optionA",
          "type": "string"
        },
        {
          "internalType": "string",
          "name": "optionB",
          "type": "string"
        }
      ],
      "name": "setVote",
      "outputs": [],
      "stateMutability": "nonpayable",
      "type": "function"
    },
    {
      "inputs": [
        {
          "internalType": "uint256",
          "name": "contrato",
          "type": "uint256"
        },
        {
          "internalType": "string",
          "name": "comment",
          "type": "string"
        }
      ],
      "name": "setVoteComment",
      "outputs": [],
      "stateMutability": "nonpayable",
      "type": "function"
    },
    {
      "inputs": [
        {
          "internalType": "uint256",
          "name": "contrato",
          "type": "uint256"
        }
      ],
      "name": "getVote",
      "outputs": [
        {
          "internalType": "string",
          "name": "",
          "type": "string"
        },
        {
          "internalType": "string",
          "name": "",
          "type": "string"
        },
        {
          "internalType": "string",
          "name": "",
          "type": "string"
        },
        {
          "internalType": "string",
          "name": "",
          "type": "string"
        },
        {
          "internalType": "address",
          "name": "",
          "type": "address"
        }
      ],
      "stateMutability": "view",
      "type": "function",
      "constant": true
    },
    {
      "inputs": [
        {
          "internalType": "uint256",
          "name": "contrato",
          "type": "uint256"
        },
        {
          "internalType": "uint256",
          "name": "comentario",
          "type": "uint256"
        }
      ],
      "name": "getVoteComment",
      "outputs": [
        {
          "internalType": "string",
          "name": "",
          "type": "string"
        },
        {
          "internalType": "address",
          "name": "",
          "type": "address"
        }
      ],
      "stateMutability": "view",
      "type": "function",
      "constant": true
    },
    {
      "inputs": [
        {
          "internalType": "string",
          "name": "type_post",
          "type": "string"
        },
        {
          "internalType": "string",
          "name": "title",
          "type": "string"
        },
        {
          "internalType": "string",
          "name": "bet",
          "type": "string"
        },
        {
          "internalType": "string",
          "name": "resultA",
          "type": "string"
        },
        {
          "internalType": "string",
          "name": "resultB",
          "type": "string"
        },
        {
          "internalType": "string",
          "name": "date",
          "type": "string"
        }
      ],
      "name": "setBet",
      "outputs": [],
      "stateMutability": "nonpayable",
      "type": "function"
    },
    {
      "inputs": [
        {
          "internalType": "uint256",
          "name": "contrato",
          "type": "uint256"
        },
        {
          "internalType": "string",
          "name": "comment",
          "type": "string"
        }
      ],
      "name": "setBetComment",
      "outputs": [],
      "stateMutability": "nonpayable",
      "type": "function"
    },
    {
      "inputs": [
        {
          "internalType": "uint256",
          "name": "contrato",
          "type": "uint256"
        }
      ],
      "name": "getBet",
      "outputs": [
        {
          "internalType": "string",
          "name": "",
          "type": "string"
        },
        {
          "internalType": "string",
          "name": "",
          "type": "string"
        },
        {
          "internalType": "string",
          "name": "",
          "type": "string"
        },
        {
          "internalType": "string",
          "name": "",
          "type": "string"
        },
        {
          "internalType": "string",
          "name": "",
          "type": "string"
        },
        {
          "internalType": "address",
          "name": "",
          "type": "address"
        }
      ],
      "stateMutability": "view",
      "type": "function",
      "constant": true
    },
    {
      "inputs": [
        {
          "internalType": "uint256",
          "name": "contrato",
          "type": "uint256"
        },
        {
          "internalType": "uint256",
          "name": "comentario",
          "type": "uint256"
        }
      ],
      "name": "getBetComment",
      "outputs": [
        {
          "internalType": "string",
          "name": "",
          "type": "string"
        },
        {
          "internalType": "address",
          "name": "",
          "type": "address"
        }
      ],
      "stateMutability": "view",
      "type": "function",
      "constant": true
    },
    {
      "inputs": [
        {
          "internalType": "uint256",
          "name": "contrato",
          "type": "uint256"
        }
      ],
      "name": "getContratos",
      "outputs": [
        {
          "internalType": "uint256",
          "name": "",
          "type": "uint256"
        },
        {
          "internalType": "string",
          "name": "",
          "type": "string"
        }
      ],
      "stateMutability": "view",
      "type": "function",
      "constant": true
    },
    {
      "inputs": [
        {
          "internalType": "uint256",
          "name": "idContract",
          "type": "uint256"
        },
        {
          "internalType": "string",
          "name": "deposited",
          "type": "string"
        }
      ],
      "name": "depositContract",
      "outputs": [],
      "stateMutability": "payable",
      "type": "function",
      "payable": true
    },
    {
      "inputs": [
        {
          "internalType": "uint256",
          "name": "idContrato",
          "type": "uint256"
        },
        {
          "internalType": "string",
          "name": "win",
          "type": "string"
        }
      ],
      "name": "withdrawBet",
      "outputs": [],
      "stateMutability": "nonpayable",
      "type": "function"
    },
    {
      "inputs": [
        {
          "internalType": "uint256",
          "name": "idContrato",
          "type": "uint256"
        }
      ],
      "name": "withdrawVote",
      "outputs": [],
      "stateMutability": "nonpayable",
      "type": "function"
    },
    {
      "inputs": [
        {
          "internalType": "uint256",
          "name": "idContrato",
          "type": "uint256"
        }
      ],
      "name": "withdraw",
      "outputs": [],
      "stateMutability": "nonpayable",
      "type": "function"
    },
    {
      "inputs": [
        {
          "internalType": "address payable",
          "name": "usser",
          "type": "address"
        }
      ],
      "name": "deposit",
      "outputs": [],
      "stateMutability": "payable",
      "type": "function",
      "payable": true
    },
    {
      "inputs": [
        {
          "internalType": "uint256",
          "name": "idContract",
          "type": "uint256"
        }
      ],
      "name": "like",
      "outputs": [],
      "stateMutability": "payable",
      "type": "function",
      "payable": true
    }
  ],
  "bytecode": "0x608060405234801561001057600080fd5b50336000806101000a81548173ffffffffffffffffffffffffffffffffffffffff021916908373ffffffffffffffffffffffffffffffffffffffff16021790555061549f806100606000396000f3fe60806040526004361061025c5760003560e01c806376e326a611610144578063bb5d359a116100b6578063ed8fd4931161007a578063ed8fd493146109a7578063ef9fc731146109e9578063f1cea4c714610a2c578063f340fa0114610a57578063f61beb0c14610a73578063fe5e185314610ab15761025c565b8063bb5d359a146108bd578063cecfda4a146108fb578063d468b59c14610924578063d7d910f314610962578063e82935da1461098b5761025c565b80639499e813116101085780639499e813146107af5780639562b654146107d8578063a1c3678c14610801578063a2548a841461082a578063a6fc5c0314610853578063b8adbb63146108925761025c565b806376e326a6146106eb5780637bca7ce2146107075780637cc8a4cb1461073057806387a2301e1461075b5780638da5cb5b146107845761025c565b80634606e47d116101dd5780635dc5da40116101a15780635dc5da40146105b057806369fd99d5146105d95780636a8eb7dd1461061757806370d6a9ac14610657578063713d9c391461069557806374a2bbe5146106c05761025c565b80634606e47d1461049b5780634a2e75df146104db5780634ffbe1bf1461051957806356a1af20146105445780635a55c1f01461056f5761025c565b806323d212aa1161022457806323d212aa1461037357806329f16d6a146103b65780632dc9a7b9146103f55780632e1a7d4d1461043357806340731c241461045c5761025c565b8063061e494f14610261578063089e556c146102a357806315052e52146102ce5780631d44c03f146102f7578063210e602914610335575b600080fd5b34801561026d57600080fd5b5061028860048036038101906102839190614895565b610adc565b60405161029a96959493929190614c6f565b60405180910390f35b3480156102af57600080fd5b506102b8610ebb565b6040516102c59190614e75565b60405180910390f35b3480156102da57600080fd5b506102f560048036038101906102f09190614659565b610ec1565b005b34801561030357600080fd5b5061031e6004803603810190610319919061491e565b611168565b60405161032c929190614b8b565b60405180910390f35b34801561034157600080fd5b5061035c6004803603810190610357919061491e565b611241565b60405161036a929190614b8b565b60405180910390f35b34801561037f57600080fd5b5061039a60048036038101906103959190614895565b61131a565b6040516103ad9796959493929190614cf3565b60405180910390f35b3480156103c257600080fd5b506103dd60048036038101906103d8919061491e565b611624565b6040516103ec93929190614f36565b60405180910390f35b34801561040157600080fd5b5061041c6004803603810190610417919061491e565b61167b565b60405161042a929190614b8b565b60405180910390f35b34801561043f57600080fd5b5061045a60048036038101906104559190614895565b611809565b005b34801561046857600080fd5b50610483600480360381019061047e9190614895565b6118c1565b60405161049293929190614bbb565b60405180910390f35b3480156104a757600080fd5b506104c260048036038101906104bd9190614895565b611ace565b6040516104d29493929190614e02565b60405180910390f35b3480156104e757600080fd5b5061050260048036038101906104fd919061491e565b611c2e565b604051610510929190614b8b565b60405180910390f35b34801561052557600080fd5b5061052e611dbc565b60405161053b9190614e75565b60405180910390f35b34801561055057600080fd5b50610559611dc2565b6040516105669190614e75565b60405180910390f35b34801561057b57600080fd5b5061059660048036038101906105919190614895565b611dc8565b6040516105a7959493929190614c00565b60405180910390f35b3480156105bc57600080fd5b506105d760048036038101906105d291906148c2565b61210c565b005b3480156105e557600080fd5b5061060060048036038101906105fb9190614895565b612208565b60405161060e929190614f06565b60405180910390f35b34801561062357600080fd5b5061063e60048036038101906106399190614895565b6122ba565b60405161064e9493929190614e02565b60405180910390f35b34801561066357600080fd5b5061067e6004803603810190610679919061491e565b61241a565b60405161068c929190614b8b565b60405180910390f35b3480156106a157600080fd5b506106aa6125a8565b6040516106b79190614e75565b60405180910390f35b3480156106cc57600080fd5b506106d56125ae565b6040516106e29190614e75565b60405180910390f35b610705600480360381019061070091906148c2565b6125b4565b005b34801561071357600080fd5b5061072e600480360381019061072991906148c2565b61289e565b005b34801561073c57600080fd5b5061074561299a565b6040516107529190614e75565b60405180910390f35b34801561076757600080fd5b50610782600480360381019061077d9190614895565b6129a0565b005b34801561079057600080fd5b50610799612c41565b6040516107a69190614b70565b60405180910390f35b3480156107bb57600080fd5b506107d660048036038101906107d191906145b2565b612c65565b005b3480156107e457600080fd5b506107ff60048036038101906107fa9190614760565b612ec4565b005b34801561080d57600080fd5b50610828600480360381019061082391906148c2565b61318f565b005b34801561083657600080fd5b50610851600480360381019061084c91906148c2565b61328b565b005b34801561085f57600080fd5b5061087a60048036038101906108759190614895565b613760565b60405161088993929190614bbb565b60405180910390f35b34801561089e57600080fd5b506108a761396d565b6040516108b49190614e75565b60405180910390f35b3480156108c957600080fd5b506108e460048036038101906108df919061491e565b613973565b6040516108f2929190614b8b565b60405180910390f35b34801561090757600080fd5b50610922600480360381019061091d91906148c2565b613a4c565b005b34801561093057600080fd5b5061094b6004803603810190610946919061491e565b613b48565b604051610959929190614b8b565b60405180910390f35b34801561096e57600080fd5b50610989600480360381019061098491906145b2565b613cd6565b005b6109a560048036038101906109a09190614895565b613f35565b005b3480156109b357600080fd5b506109ce60048036038101906109c99190614895565b613fb3565b6040516109e096959493929190614d85565b60405180910390f35b3480156109f557600080fd5b50610a106004803603810190610a0b9190614895565b61422f565b604051610a239796959493929190614e90565b60405180910390f35b348015610a3857600080fd5b50610a41614319565b604051610a4e9190614e75565b60405180910390f35b610a716004803603810190610a6c9190614585565b61431f565b005b348015610a7f57600080fd5b50610a9a6004803603810190610a95919061491e565b614369565b604051610aa8929190614b8b565b60405180910390f35b348015610abd57600080fd5b50610ac6614442565b604051610ad39190614e75565b60405180910390f35b60608060608060606000600954871115610b2b576040517f08c379a0000000000000000000000000000000000000000000000000000000008152600401610b2290614e55565b60405180910390fd5b6000601360008981526020019081526020016000206040518060e0016040529081600082018054610b5b9061518f565b80601f0160208091040260200160405190810160405280929190818152602001828054610b879061518f565b8015610bd45780601f10610ba957610100808354040283529160200191610bd4565b820191906000526020600020905b815481529060010190602001808311610bb757829003601f168201915b50505050508152602001600182018054610bed9061518f565b80601f0160208091040260200160405190810160405280929190818152602001828054610c199061518f565b8015610c665780601f10610c3b57610100808354040283529160200191610c66565b820191906000526020600020905b815481529060010190602001808311610c4957829003601f168201915b50505050508152602001600282018054610c7f9061518f565b80601f0160208091040260200160405190810160405280929190818152602001828054610cab9061518f565b8015610cf85780601f10610ccd57610100808354040283529160200191610cf8565b820191906000526020600020905b815481529060010190602001808311610cdb57829003601f168201915b50505050508152602001600382018054610d119061518f565b80601f0160208091040260200160405190810160405280929190818152602001828054610d3d9061518f565b8015610d8a5780601f10610d5f57610100808354040283529160200191610d8a565b820191906000526020600020905b815481529060010190602001808311610d6d57829003601f168201915b50505050508152602001600482018054610da39061518f565b80601f0160208091040260200160405190810160405280929190818152602001828054610dcf9061518f565b8015610e1c5780601f10610df157610100808354040283529160200191610e1c565b820191906000526020600020905b815481529060010190602001808311610dff57829003601f168201915b50505050508152602001600582015481526020016006820160009054906101000a900473ffffffffffffffffffffffffffffffffffffffff1673ffffffffffffffffffffffffffffffffffffffff1673ffffffffffffffffffffffffffffffffffffffff16815250509050806000015181602001518260400151836060015184608001518560c001519650965096509650965096505091939550919395565b60055481565b604051602001610ed090614b5b565b6040516020818303038152906040528051906020012085604051602001610ef79190614adb565b6040516020818303038152906040528051906020012014156111615760016000815480929190610f26906151f2565b91905055506040518060e00160405280600081526020013373ffffffffffffffffffffffffffffffffffffffff1681526020016000815260200160008152602001600081526020016000815260200186815250600b600060015481526020019081526020016000206000820151816000015560208201518160010160006101000a81548173ffffffffffffffffffffffffffffffffffffffff021916908373ffffffffffffffffffffffffffffffffffffffff16021790555060408201518160020155606082015181600301556080820151816004015560a0820151816005015560c0820151816006019080519060200190611023929190614448565b509050506008600081548092919061103a906151f2565b91905055506040518060c00160405280858152602001848152602001838152602001828152602001600081526020013373ffffffffffffffffffffffffffffffffffffffff1681525060116000600854815260200190815260200160002060008201518160000190805190602001906110b4929190614448565b5060208201518160010190805190602001906110d1929190614448565b5060408201518160020190805190602001906110ee929190614448565b50606082015181600301908051906020019061110b929190614448565b506080820151816004015560a08201518160050160006101000a81548173ffffffffffffffffffffffffffffffffffffffff021916908373ffffffffffffffffffffffffffffffffffffffff1602179055509050505b5050505050565b600c602052816000526040600020602052806000526040600020600091509150508060000180546111989061518f565b80601f01602080910402602001604051908101604052809291908181526020018280546111c49061518f565b80156112115780601f106111e657610100808354040283529160200191611211565b820191906000526020600020905b8154815290600101906020018083116111f457829003601f168201915b5050505050908060010160009054906101000a900473ffffffffffffffffffffffffffffffffffffffff16905082565b6010602052816000526040600020602052806000526040600020600091509150508060000180546112719061518f565b80601f016020809104026020016040519081016040528092919081815260200182805461129d9061518f565b80156112ea5780601f106112bf576101008083540402835291602001916112ea565b820191906000526020600020905b8154815290600101906020018083116112cd57829003601f168201915b5050505050908060010160009054906101000a900473ffffffffffffffffffffffffffffffffffffffff16905082565b601360205280600052604060002060009150905080600001805461133d9061518f565b80601f01602080910402602001604051908101604052809291908181526020018280546113699061518f565b80156113b65780601f1061138b576101008083540402835291602001916113b6565b820191906000526020600020905b81548152906001019060200180831161139957829003601f168201915b5050505050908060010180546113cb9061518f565b80601f01602080910402602001604051908101604052809291908181526020018280546113f79061518f565b80156114445780601f1061141957610100808354040283529160200191611444565b820191906000526020600020905b81548152906001019060200180831161142757829003601f168201915b5050505050908060020180546114599061518f565b80601f01602080910402602001604051908101604052809291908181526020018280546114859061518f565b80156114d25780601f106114a7576101008083540402835291602001916114d2565b820191906000526020600020905b8154815290600101906020018083116114b557829003601f168201915b5050505050908060030180546114e79061518f565b80601f01602080910402602001604051908101604052809291908181526020018280546115139061518f565b80156115605780601f1061153557610100808354040283529160200191611560565b820191906000526020600020905b81548152906001019060200180831161154357829003601f168201915b5050505050908060040180546115759061518f565b80601f01602080910402602001604051908101604052809291908181526020018280546115a19061518f565b80156115ee5780601f106115c3576101008083540402835291602001916115ee565b820191906000526020600020905b8154815290600101906020018083116115d157829003601f168201915b5050505050908060050154908060060160009054906101000a900473ffffffffffffffffffffffffffffffffffffffff16905087565b600a602052816000526040600020602052806000526040600020600091509150508060000154908060010154908060020160009054906101000a900473ffffffffffffffffffffffffffffffffffffffff16905083565b6060600060136000858152602001908152602001600020600501548411156116d8576040517f08c379a00000000000000000000000000000000000000000000000000000000081526004016116cf90614e55565b60405180910390fd5b60006012600086815260200190815260200160002060008581526020019081526020016000206040518060400160405290816000820180546117199061518f565b80601f01602080910402602001604051908101604052809291908181526020018280546117459061518f565b80156117925780601f1061176757610100808354040283529160200191611792565b820191906000526020600020905b81548152906001019060200180831161177557829003601f168201915b505050505081526020016001820160009054906101000a900473ffffffffffffffffffffffffffffffffffffffff1673ffffffffffffffffffffffffffffffffffffffff1673ffffffffffffffffffffffffffffffffffffffff168152505090508060000151816020015192509250509250929050565b6000600b6000838152602001908152602001600020600501549050600b600083815260200190815260200160002060010160009054906101000a900473ffffffffffffffffffffffffffffffffffffffff1673ffffffffffffffffffffffffffffffffffffffff166108fc829081150290604051600060405180830381858888f193505050501580156118a0573d6000803e3d6000fd5b506000600b6000848152602001908152602001600020600501819055505050565b606080600060065484111561190b576040517f08c379a000000000000000000000000000000000000000000000000000000000815260040161190290614e55565b60405180910390fd5b6000600d600086815260200190815260200160002060405180608001604052908160008201805461193b9061518f565b80601f01602080910402602001604051908101604052809291908181526020018280546119679061518f565b80156119b45780601f10611989576101008083540402835291602001916119b4565b820191906000526020600020905b81548152906001019060200180831161199757829003601f168201915b505050505081526020016001820180546119cd9061518f565b80601f01602080910402602001604051908101604052809291908181526020018280546119f99061518f565b8015611a465780601f10611a1b57610100808354040283529160200191611a46565b820191906000526020600020905b815481529060010190602001808311611a2957829003601f168201915b50505050508152602001600282015481526020016003820160009054906101000a900473ffffffffffffffffffffffffffffffffffffffff1673ffffffffffffffffffffffffffffffffffffffff1673ffffffffffffffffffffffffffffffffffffffff16815250509050806000015181602001518260600151935093509350509193909250565b600f602052806000526040600020600091509050806000018054611af19061518f565b80601f0160208091040260200160405190810160405280929190818152602001828054611b1d9061518f565b8015611b6a5780601f10611b3f57610100808354040283529160200191611b6a565b820191906000526020600020905b815481529060010190602001808311611b4d57829003601f168201915b505050505090806001018054611b7f9061518f565b80601f0160208091040260200160405190810160405280929190818152602001828054611bab9061518f565b8015611bf85780601f10611bcd57610100808354040283529160200191611bf8565b820191906000526020600020905b815481529060010190602001808311611bdb57829003601f168201915b5050505050908060020154908060030160009054906101000a900473ffffffffffffffffffffffffffffffffffffffff16905084565b60606000600f600085815260200190815260200160002060020154841115611c8b576040517f08c379a0000000000000000000000000000000000000000000000000000000008152600401611c8290614e55565b60405180910390fd5b6000600e60008681526020019081526020016000206000858152602001908152602001600020604051806040016040529081600082018054611ccc9061518f565b80601f0160208091040260200160405190810160405280929190818152602001828054611cf89061518f565b8015611d455780601f10611d1a57610100808354040283529160200191611d45565b820191906000526020600020905b815481529060010190602001808311611d2857829003601f168201915b505050505081526020016001820160009054906101000a900473ffffffffffffffffffffffffffffffffffffffff1673ffffffffffffffffffffffffffffffffffffffff1673ffffffffffffffffffffffffffffffffffffffff168152505090508060000151816020015192509250509250929050565b60075481565b60065481565b6060806060806000600854861115611e15576040517f08c379a0000000000000000000000000000000000000000000000000000000008152600401611e0c90614e55565b60405180910390fd5b6000601160008881526020019081526020016000206040518060c0016040529081600082018054611e459061518f565b80601f0160208091040260200160405190810160405280929190818152602001828054611e719061518f565b8015611ebe5780601f10611e9357610100808354040283529160200191611ebe565b820191906000526020600020905b815481529060010190602001808311611ea157829003601f168201915b50505050508152602001600182018054611ed79061518f565b80601f0160208091040260200160405190810160405280929190818152602001828054611f039061518f565b8015611f505780601f10611f2557610100808354040283529160200191611f50565b820191906000526020600020905b815481529060010190602001808311611f3357829003601f168201915b50505050508152602001600282018054611f699061518f565b80601f0160208091040260200160405190810160405280929190818152602001828054611f959061518f565b8015611fe25780601f10611fb757610100808354040283529160200191611fe2565b820191906000526020600020905b815481529060010190602001808311611fc557829003601f168201915b50505050508152602001600382018054611ffb9061518f565b80601f01602080910402602001604051908101604052809291908181526020018280546120279061518f565b80156120745780601f1061204957610100808354040283529160200191612074565b820191906000526020600020905b81548152906001019060200180831161205757829003601f168201915b50505050508152602001600482015481526020016005820160009054906101000a900473ffffffffffffffffffffffffffffffffffffffff1673ffffffffffffffffffffffffffffffffffffffff1673ffffffffffffffffffffffffffffffffffffffff1681525050905080600001518160200151826040015183606001518460a00151955095509550955095505091939590929450565b60405180604001604052808281526020013373ffffffffffffffffffffffffffffffffffffffff1681525060106000848152602001908152602001600020600060116000868152602001908152602001600020600401548152602001908152602001600020600082015181600001908051906020019061218d929190614448565b5060208201518160010160006101000a81548173ffffffffffffffffffffffffffffffffffffffff021916908373ffffffffffffffffffffffffffffffffffffffff1602179055509050506011600083815260200190815260200160002060040160008154809291906121ff906151f2565b91905055505050565b60006060600154600b60008581526020019081526020016000206006018080546122319061518f565b80601f016020809104026020016040519081016040528092919081815260200182805461225d9061518f565b80156122aa5780601f1061227f576101008083540402835291602001916122aa565b820191906000526020600020905b81548152906001019060200180831161228d57829003601f168201915b5050505050905091509150915091565b600d6020528060005260406000206000915090508060000180546122dd9061518f565b80601f01602080910402602001604051908101604052809291908181526020018280546123099061518f565b80156123565780601f1061232b57610100808354040283529160200191612356565b820191906000526020600020905b81548152906001019060200180831161233957829003601f168201915b50505050509080600101805461236b9061518f565b80601f01602080910402602001604051908101604052809291908181526020018280546123979061518f565b80156123e45780601f106123b9576101008083540402835291602001916123e4565b820191906000526020600020905b8154815290600101906020018083116123c757829003601f168201915b5050505050908060020154908060030160009054906101000a900473ffffffffffffffffffffffffffffffffffffffff16905084565b60606000600d600085815260200190815260200160002060020154841115612477576040517f08c379a000000000000000000000000000000000000000000000000000000000815260040161246e90614e55565b60405180910390fd5b6000600c600086815260200190815260200160002060008581526020019081526020016000206040518060400160405290816000820180546124b89061518f565b80601f01602080910402602001604051908101604052809291908181526020018280546124e49061518f565b80156125315780601f1061250657610100808354040283529160200191612531565b820191906000526020600020905b81548152906001019060200180831161251457829003601f168201915b505050505081526020016001820160009054906101000a900473ffffffffffffffffffffffffffffffffffffffff1673ffffffffffffffffffffffffffffffffffffffff1673ffffffffffffffffffffffffffffffffffffffff168152505090508060000151816020015192509250509250929050565b60035481565b60045481565b6000821180156125c45750600034115b1561289a5733600a60008481526020019081526020016000206000600b600086815260200190815260200160002060000154815260200190815260200160002060020160006101000a81548173ffffffffffffffffffffffffffffffffffffffff021916908373ffffffffffffffffffffffffffffffffffffffff16021790555060405160200161265490614b07565b604051602081830303815290604052805190602001208160405160200161267b9190614adb565b60405160208183030381529060405280519060200120141561271d5734600a60008481526020019081526020016000206000600b600086815260200190815260200160002060000154815260200190815260200160002060000160008282546126e49190614fea565b9250508190555034600b600084815260200190815260200160002060030160008282546127119190614fea565b925050819055506127f2565b60405160200161272c90614af2565b60405160208183030381529060405280519060200120816040516020016127539190614adb565b6040516020818303038152906040528051906020012014156127f15734600a60008481526020019081526020016000206000600b600086815260200190815260200160002060000154815260200190815260200160002060010160008282546127bc9190614fea565b9250508190555034600b600084815260200190815260200160002060040160008282546127e99190614fea565b925050819055505b5b600b60008381526020019081526020016000206000016000815480929190612819906151f2565b919050555034600b600084815260200190815260200160002060020160008282546128449190614fea565b925050819055503373ffffffffffffffffffffffffffffffffffffffff167fe1fffcc4923d04b559f4d29a8bfc6cda04eb5b0d3c460751c2402c5c5cc9109c346040516128919190614e75565b60405180910390a25b5050565b60405180604001604052808281526020013373ffffffffffffffffffffffffffffffffffffffff16815250600c60008481526020019081526020016000206000600d6000868152602001908152602001600020600201548152602001908152602001600020600082015181600001908051906020019061291f929190614448565b5060208201518160010160006101000a81548173ffffffffffffffffffffffffffffffffffffffff021916908373ffffffffffffffffffffffffffffffffffffffff160217905550905050600d60008381526020019081526020016000206002016000815480929190612991906151f2565b91905055505050565b60025481565b600080600b60008481526020019081526020016000206002015414158015612a2957503373ffffffffffffffffffffffffffffffffffffffff16600b600084815260200190815260200160002060010160009054906101000a900473ffffffffffffffffffffffffffffffffffffffff1673ffffffffffffffffffffffffffffffffffffffff16145b15612c3d57600b600083815260200190815260200160002060000154600b600084815260200190815260200160002060020154612a669190615040565b905060005b6001600b600085815260200190815260200160002060000154612a8e91906150cb565b8113612b3557600a6000848152602001908152602001600020600082815260200190815260200160002060020160009054906101000a900473ffffffffffffffffffffffffffffffffffffffff1673ffffffffffffffffffffffffffffffffffffffff166108fc839081150290604051600060405180830381858888f19350505050158015612b21573d6000803e3d6000fd5b508080612b2d906151f2565b915050612a6b565b506000600b6000848152602001908152602001600020600201819055506000600b6000848152602001908152602001600020600301819055506000600b600084815260200190815260200160002060040181905550600b6000838152602001908152602001600020600501549050600b600083815260200190815260200160002060010160009054906101000a900473ffffffffffffffffffffffffffffffffffffffff1673ffffffffffffffffffffffffffffffffffffffff166108fc829081150290604051600060405180830381858888f19350505050158015612c1f573d6000803e3d6000fd5b506000600b6000848152602001908152602001600020600501819055505b5050565b60008054906101000a900473ffffffffffffffffffffffffffffffffffffffff1681565b604051602001612c7490614b46565b6040516020818303038152906040528051906020012083604051602001612c9b9190614adb565b604051602081830303815290604052805190602001201415612ebf5760016000815480929190612cca906151f2565b91905055506040518060e00160405280600081526020013373ffffffffffffffffffffffffffffffffffffffff1681526020016000815260200160008152602001600081526020016000815260200184815250600b600060015481526020019081526020016000206000820151816000015560208201518160010160006101000a81548173ffffffffffffffffffffffffffffffffffffffff021916908373ffffffffffffffffffffffffffffffffffffffff16021790555060408201518160020155606082015181600301556080820151816004015560a0820151816005015560c0820151816006019080519060200190612dc7929190614448565b5090505060066000815480929190612dde906151f2565b91905055506040518060800160405280838152602001828152602001600081526020013373ffffffffffffffffffffffffffffffffffffffff16815250600d600060065481526020019081526020016000206000820151816000019080519060200190612e4c929190614448565b506020820151816001019080519060200190612e69929190614448565b506040820151816002015560608201518160030160006101000a81548173ffffffffffffffffffffffffffffffffffffffff021916908373ffffffffffffffffffffffffffffffffffffffff1602179055509050505b505050565b604051602001612ed390614b1c565b6040516020818303038152906040528051906020012086604051602001612efa9190614adb565b6040516020818303038152906040528051906020012014156131875760016000815480929190612f29906151f2565b91905055506040518060e00160405280600081526020013373ffffffffffffffffffffffffffffffffffffffff1681526020016000815260200160008152602001600081526020016000815260200187815250600b600060015481526020019081526020016000206000820151816000015560208201518160010160006101000a81548173ffffffffffffffffffffffffffffffffffffffff021916908373ffffffffffffffffffffffffffffffffffffffff16021790555060408201518160020155606082015181600301556080820151816004015560a0820151816005015560c0820151816006019080519060200190613026929190614448565b509050506009600081548092919061303d906151f2565b91905055506040518060e00160405280868152602001858152602001848152602001838152602001828152602001600081526020013373ffffffffffffffffffffffffffffffffffffffff1681525060136000600954815260200190815260200160002060008201518160000190805190602001906130bd929190614448565b5060208201518160010190805190602001906130da929190614448565b5060408201518160020190805190602001906130f7929190614448565b506060820151816003019080519060200190613114929190614448565b506080820151816004019080519060200190613131929190614448565b5060a0820151816005015560c08201518160060160006101000a81548173ffffffffffffffffffffffffffffffffffffffff021916908373ffffffffffffffffffffffffffffffffffffffff1602179055509050505b505050505050565b60405180604001604052808281526020013373ffffffffffffffffffffffffffffffffffffffff16815250601260008481526020019081526020016000206000601360008681526020019081526020016000206005015481526020019081526020016000206000820151816000019080519060200190613210929190614448565b5060208201518160010160006101000a81548173ffffffffffffffffffffffffffffffffffffffff021916908373ffffffffffffffffffffffffffffffffffffffff160217905550905050601360008381526020019081526020016000206005016000815480929190613282906151f2565b91905055505050565b600080600b6000858152602001908152602001600020600201541415801561331457503373ffffffffffffffffffffffffffffffffffffffff16600b600085815260200190815260200160002060010160009054906101000a900473ffffffffffffffffffffffffffffffffffffffff1673ffffffffffffffffffffffffffffffffffffffff16145b1561375b5760005b600b60008581526020019081526020016000206000015481136136535760405160200161334890614b07565b604051602081830303815290604052805190602001208360405160200161336f9190614adb565b604051602081830303815290604052805190602001201480156133ba57506000600a600086815260200190815260200160002060008381526020019081526020016000206000015414155b156134be57600b600085815260200190815260200160002060030154600a6000868152602001908152602001600020600083815260200190815260200160002060000154600b60008781526020019081526020016000206002015461341f9190615071565b6134299190615040565b9150600a6000858152602001908152602001600020600082815260200190815260200160002060020160009054906101000a900473ffffffffffffffffffffffffffffffffffffffff1673ffffffffffffffffffffffffffffffffffffffff166108fc839081150290604051600060405180830381858888f193505050501580156134b8573d6000803e3d6000fd5b50613640565b6040516020016134cd90614af2565b60405160208183030381529060405280519060200120836040516020016134f49190614adb565b6040516020818303038152906040528051906020012014801561353f57506000600a600086815260200190815260200160002060008381526020019081526020016000206001015414155b1561363f57600b600085815260200190815260200160002060040154600a6000868152602001908152602001600020600083815260200190815260200160002060010154600b6000878152602001908152602001600020600201546135a49190615071565b6135ae9190615040565b9150600a6000858152602001908152602001600020600082815260200190815260200160002060020160009054906101000a900473ffffffffffffffffffffffffffffffffffffffff1673ffffffffffffffffffffffffffffffffffffffff166108fc839081150290604051600060405180830381858888f1935050505015801561363d573d6000803e3d6000fd5b505b5b808061364b906151f2565b91505061331c565b506000600b6000858152602001908152602001600020600201819055506000600b6000858152602001908152602001600020600301819055506000600b600085815260200190815260200160002060040181905550600b6000848152602001908152602001600020600501549050600b600084815260200190815260200160002060010160009054906101000a900473ffffffffffffffffffffffffffffffffffffffff1673ffffffffffffffffffffffffffffffffffffffff166108fc829081150290604051600060405180830381858888f1935050505015801561373d573d6000803e3d6000fd5b506000600b6000858152602001908152602001600020600501819055505b505050565b60608060006007548411156137aa576040517f08c379a00000000000000000000000000000000000000000000000000000000081526004016137a190614e55565b60405180910390fd5b6000600f60008681526020019081526020016000206040518060800160405290816000820180546137da9061518f565b80601f01602080910402602001604051908101604052809291908181526020018280546138069061518f565b80156138535780601f1061382857610100808354040283529160200191613853565b820191906000526020600020905b81548152906001019060200180831161383657829003601f168201915b5050505050815260200160018201805461386c9061518f565b80601f01602080910402602001604051908101604052809291908181526020018280546138989061518f565b80156138e55780601f106138ba576101008083540402835291602001916138e5565b820191906000526020600020905b8154815290600101906020018083116138c857829003601f168201915b50505050508152602001600282015481526020016003820160009054906101000a900473ffffffffffffffffffffffffffffffffffffffff1673ffffffffffffffffffffffffffffffffffffffff1673ffffffffffffffffffffffffffffffffffffffff16815250509050806000015181602001518260600151935093509350509193909250565b60015481565b6012602052816000526040600020602052806000526040600020600091509150508060000180546139a39061518f565b80601f01602080910402602001604051908101604052809291908181526020018280546139cf9061518f565b8015613a1c5780601f106139f157610100808354040283529160200191613a1c565b820191906000526020600020905b8154815290600101906020018083116139ff57829003601f168201915b5050505050908060010160009054906101000a900473ffffffffffffffffffffffffffffffffffffffff16905082565b60405180604001604052808281526020013373ffffffffffffffffffffffffffffffffffffffff16815250600e60008481526020019081526020016000206000600f60008681526020019081526020016000206002015481526020019081526020016000206000820151816000019080519060200190613acd929190614448565b5060208201518160010160006101000a81548173ffffffffffffffffffffffffffffffffffffffff021916908373ffffffffffffffffffffffffffffffffffffffff160217905550905050600f60008381526020019081526020016000206002016000815480929190613b3f906151f2565b91905055505050565b606060006011600085815260200190815260200160002060040154841115613ba5576040517f08c379a0000000000000000000000000000000000000000000000000000000008152600401613b9c90614e55565b60405180910390fd5b6000601060008681526020019081526020016000206000858152602001908152602001600020604051806040016040529081600082018054613be69061518f565b80601f0160208091040260200160405190810160405280929190818152602001828054613c129061518f565b8015613c5f5780601f10613c3457610100808354040283529160200191613c5f565b820191906000526020600020905b815481529060010190602001808311613c4257829003601f168201915b505050505081526020016001820160009054906101000a900473ffffffffffffffffffffffffffffffffffffffff1673ffffffffffffffffffffffffffffffffffffffff1673ffffffffffffffffffffffffffffffffffffffff168152505090508060000151816020015192509250509250929050565b604051602001613ce590614b31565b6040516020818303038152906040528051906020012083604051602001613d0c9190614adb565b604051602081830303815290604052805190602001201415613f305760016000815480929190613d3b906151f2565b91905055506040518060e00160405280600081526020013373ffffffffffffffffffffffffffffffffffffffff1681526020016000815260200160008152602001600081526020016000815260200184815250600b600060015481526020019081526020016000206000820151816000015560208201518160010160006101000a81548173ffffffffffffffffffffffffffffffffffffffff021916908373ffffffffffffffffffffffffffffffffffffffff16021790555060408201518160020155606082015181600301556080820151816004015560a0820151816005015560c0820151816006019080519060200190613e38929190614448565b5090505060076000815480929190613e4f906151f2565b91905055506040518060800160405280838152602001828152602001600081526020013373ffffffffffffffffffffffffffffffffffffffff16815250600f600060075481526020019081526020016000206000820151816000019080519060200190613ebd929190614448565b506020820151816001019080519060200190613eda929190614448565b506040820151816002015560608201518160030160006101000a81548173ffffffffffffffffffffffffffffffffffffffff021916908373ffffffffffffffffffffffffffffffffffffffff1602179055509050505b505050565b34600b60008381526020019081526020016000206005016000828254613f5b9190614fea565b925050819055503373ffffffffffffffffffffffffffffffffffffffff167fe1fffcc4923d04b559f4d29a8bfc6cda04eb5b0d3c460751c2402c5c5cc9109c34604051613fa89190614e75565b60405180910390a250565b6011602052806000526040600020600091509050806000018054613fd69061518f565b80601f01602080910402602001604051908101604052809291908181526020018280546140029061518f565b801561404f5780601f106140245761010080835404028352916020019161404f565b820191906000526020600020905b81548152906001019060200180831161403257829003601f168201915b5050505050908060010180546140649061518f565b80601f01602080910402602001604051908101604052809291908181526020018280546140909061518f565b80156140dd5780601f106140b2576101008083540402835291602001916140dd565b820191906000526020600020905b8154815290600101906020018083116140c057829003601f168201915b5050505050908060020180546140f29061518f565b80601f016020809104026020016040519081016040528092919081815260200182805461411e9061518f565b801561416b5780601f106141405761010080835404028352916020019161416b565b820191906000526020600020905b81548152906001019060200180831161414e57829003601f168201915b5050505050908060030180546141809061518f565b80601f01602080910402602001604051908101604052809291908181526020018280546141ac9061518f565b80156141f95780601f106141ce576101008083540402835291602001916141f9565b820191906000526020600020905b8154815290600101906020018083116141dc57829003601f168201915b5050505050908060040154908060050160009054906101000a900473ffffffffffffffffffffffffffffffffffffffff16905086565b600b6020528060005260406000206000915090508060000154908060010160009054906101000a900473ffffffffffffffffffffffffffffffffffffffff16908060020154908060030154908060040154908060050154908060060180546142969061518f565b80601f01602080910402602001604051908101604052809291908181526020018280546142c29061518f565b801561430f5780601f106142e45761010080835404028352916020019161430f565b820191906000526020600020905b8154815290600101906020018083116142f257829003601f168201915b5050505050905087565b60085481565b8073ffffffffffffffffffffffffffffffffffffffff166108fc349081150290604051600060405180830381858888f19350505050158015614365573d6000803e3d6000fd5b5050565b600e602052816000526040600020602052806000526040600020600091509150508060000180546143999061518f565b80601f01602080910402602001604051908101604052809291908181526020018280546143c59061518f565b80156144125780601f106143e757610100808354040283529160200191614412565b820191906000526020600020905b8154815290600101906020018083116143f557829003601f168201915b5050505050908060010160009054906101000a900473ffffffffffffffffffffffffffffffffffffffff16905082565b60095481565b8280546144549061518f565b90600052602060002090601f01602090048101928261447657600085556144bd565b82601f1061448f57805160ff19168380011785556144bd565b828001600101855582156144bd579182015b828111156144bc5782518255916020019190600101906144a1565b5b5090506144ca91906144ce565b5090565b5b808211156144e75760008160009055506001016144cf565b5090565b60006144fe6144f984614f92565b614f6d565b90508281526020810184848401111561451a576145196152fc565b5b61452584828561514d565b509392505050565b60008135905061453c8161543b565b92915050565b600082601f830112614557576145566152f7565b5b81356145678482602086016144eb565b91505092915050565b60008135905061457f81615452565b92915050565b60006020828403121561459b5761459a615306565b5b60006145a98482850161452d565b91505092915050565b6000806000606084860312156145cb576145ca615306565b5b600084013567ffffffffffffffff8111156145e9576145e8615301565b5b6145f586828701614542565b935050602084013567ffffffffffffffff81111561461657614615615301565b5b61462286828701614542565b925050604084013567ffffffffffffffff81111561464357614642615301565b5b61464f86828701614542565b9150509250925092565b600080600080600060a0868803121561467557614674615306565b5b600086013567ffffffffffffffff81111561469357614692615301565b5b61469f88828901614542565b955050602086013567ffffffffffffffff8111156146c0576146bf615301565b5b6146cc88828901614542565b945050604086013567ffffffffffffffff8111156146ed576146ec615301565b5b6146f988828901614542565b935050606086013567ffffffffffffffff81111561471a57614719615301565b5b61472688828901614542565b925050608086013567ffffffffffffffff81111561474757614746615301565b5b61475388828901614542565b9150509295509295909350565b60008060008060008060c0878903121561477d5761477c615306565b5b600087013567ffffffffffffffff81111561479b5761479a615301565b5b6147a789828a01614542565b965050602087013567ffffffffffffffff8111156147c8576147c7615301565b5b6147d489828a01614542565b955050604087013567ffffffffffffffff8111156147f5576147f4615301565b5b61480189828a01614542565b945050606087013567ffffffffffffffff81111561482257614821615301565b5b61482e89828a01614542565b935050608087013567ffffffffffffffff81111561484f5761484e615301565b5b61485b89828a01614542565b92505060a087013567ffffffffffffffff81111561487c5761487b615301565b5b61488889828a01614542565b9150509295509295509295565b6000602082840312156148ab576148aa615306565b5b60006148b984828501614570565b91505092915050565b600080604083850312156148d9576148d8615306565b5b60006148e785828601614570565b925050602083013567ffffffffffffffff81111561490857614907615301565b5b61491485828601614542565b9150509250929050565b6000806040838503121561493557614934615306565b5b600061494385828601614570565b925050602061495485828601614570565b9150509250929050565b614967816150ff565b82525050565b600061497882614fc3565b6149828185614fce565b935061499281856020860161515c565b61499b8161530b565b840191505092915050565b60006149b182614fc3565b6149bb8185614fdf565b93506149cb81856020860161515c565b80840191505092915050565b60006149e4600983614fdf565b91506149ef8261531c565b600982019050919050565b6000614a07600683614fdf565b9150614a1282615345565b600682019050919050565b6000614a2a600383614fdf565b9150614a358261536e565b600382019050919050565b6000614a4d601583614fce565b9150614a5882615397565b602082019050919050565b6000614a70600483614fdf565b9150614a7b826153c0565b600482019050919050565b6000614a93600483614fdf565b9150614a9e826153e9565b600482019050919050565b6000614ab6600483614fdf565b9150614ac182615412565b600482019050919050565b614ad581615143565b82525050565b6000614ae782846149a6565b915081905092915050565b6000614afd826149d7565b9150819050919050565b6000614b12826149fa565b9150819050919050565b6000614b2782614a1d565b9150819050919050565b6000614b3c82614a63565b9150819050919050565b6000614b5182614a86565b9150819050919050565b6000614b6682614aa9565b9150819050919050565b6000602082019050614b85600083018461495e565b92915050565b60006040820190508181036000830152614ba5818561496d565b9050614bb4602083018461495e565b9392505050565b60006060820190508181036000830152614bd5818661496d565b90508181036020830152614be9818561496d565b9050614bf8604083018461495e565b949350505050565b600060a0820190508181036000830152614c1a818861496d565b90508181036020830152614c2e818761496d565b90508181036040830152614c42818661496d565b90508181036060830152614c56818561496d565b9050614c65608083018461495e565b9695505050505050565b600060c0820190508181036000830152614c89818961496d565b90508181036020830152614c9d818861496d565b90508181036040830152614cb1818761496d565b90508181036060830152614cc5818661496d565b90508181036080830152614cd9818561496d565b9050614ce860a083018461495e565b979650505050505050565b600060e0820190508181036000830152614d0d818a61496d565b90508181036020830152614d21818961496d565b90508181036040830152614d35818861496d565b90508181036060830152614d49818761496d565b90508181036080830152614d5d818661496d565b9050614d6c60a0830185614acc565b614d7960c083018461495e565b98975050505050505050565b600060c0820190508181036000830152614d9f818961496d565b90508181036020830152614db3818861496d565b90508181036040830152614dc7818761496d565b90508181036060830152614ddb818661496d565b9050614dea6080830185614acc565b614df760a083018461495e565b979650505050505050565b60006080820190508181036000830152614e1c818761496d565b90508181036020830152614e30818661496d565b9050614e3f6040830185614acc565b614e4c606083018461495e565b95945050505050565b60006020820190508181036000830152614e6e81614a40565b9050919050565b6000602082019050614e8a6000830184614acc565b92915050565b600060e082019050614ea5600083018a614acc565b614eb2602083018961495e565b614ebf6040830188614acc565b614ecc6060830187614acc565b614ed96080830186614acc565b614ee660a0830185614acc565b81810360c0830152614ef8818461496d565b905098975050505050505050565b6000604082019050614f1b6000830185614acc565b8181036020830152614f2d818461496d565b90509392505050565b6000606082019050614f4b6000830186614acc565b614f586020830185614acc565b614f65604083018461495e565b949350505050565b6000614f77614f88565b9050614f8382826151c1565b919050565b6000604051905090565b600067ffffffffffffffff821115614fad57614fac6152c8565b5b614fb68261530b565b9050602081019050919050565b600081519050919050565b600082825260208201905092915050565b600081905092915050565b6000614ff582615143565b915061500083615143565b9250827fffffffffffffffffffffffffffffffffffffffffffffffffffffffffffffffff038211156150355761503461523b565b5b828201905092915050565b600061504b82615143565b915061505683615143565b9250826150665761506561526a565b5b828204905092915050565b600061507c82615143565b915061508783615143565b9250817fffffffffffffffffffffffffffffffffffffffffffffffffffffffffffffffff04831182151516156150c0576150bf61523b565b5b828202905092915050565b60006150d682615143565b91506150e183615143565b9250828210156150f4576150f361523b565b5b828203905092915050565b600061510a82615123565b9050919050565b600061511c82615123565b9050919050565b600073ffffffffffffffffffffffffffffffffffffffff82169050919050565b6000819050919050565b82818337600083830152505050565b60005b8381101561517a57808201518184015260208101905061515f565b83811115615189576000848401525b50505050565b600060028204905060018216806151a757607f821691505b602082108114156151bb576151ba615299565b5b50919050565b6151ca8261530b565b810181811067ffffffffffffffff821117156151e9576151e86152c8565b5b80604052505050565b60006151fd82615143565b91507fffffffffffffffffffffffffffffffffffffffffffffffffffffffffffffffff8214156152305761522f61523b565b5b600182019050919050565b7f4e487b7100000000000000000000000000000000000000000000000000000000600052601160045260246000fd5b7f4e487b7100000000000000000000000000000000000000000000000000000000600052601260045260246000fd5b7f4e487b7100000000000000000000000000000000000000000000000000000000600052602260045260246000fd5b7f4e487b7100000000000000000000000000000000000000000000000000000000600052604160045260246000fd5b600080fd5b600080fd5b600080fd5b600080fd5b6000601f19601f8301169050919050565b7f4469736170726f76650000000000000000000000000000000000000000000000600082015250565b7f4170726f76650000000000000000000000000000000000000000000000000000600082015250565b7f4265740000000000000000000000000000000000000000000000000000000000600082015250565b7f496e646963652066756572612064652072616e676f0000000000000000000000600082015250565b7f436f646500000000000000000000000000000000000000000000000000000000600082015250565b7f506f737400000000000000000000000000000000000000000000000000000000600082015250565b7f566f746500000000000000000000000000000000000000000000000000000000600082015250565b61544481615111565b811461544f57600080fd5b50565b61545b81615143565b811461546657600080fd5b5056fea2646970667358221220eb56802fd75b1fc6b2ac3d36c1ebca0d7704c74c11809adafeb02f358221296664736f6c63430008050033",
  "immutableReferences": {},
  "source": "// SPDX-License-Identifier: MIT\r\n\r\npragma solidity ^0.8.0;\r\n\r\ncontract AuroraSocial {\r\n    address public owner;    \r\n    uint256 public totalContrato;\r\n    uint256 public tCommentPost;\r\n    uint256 public tCommentCode;\r\n    uint256 public tCommentVote;\r\n    uint256 public tCommentBet;\r\n    uint256 public totalPost;\r\n    uint256 public totalCode;\r\n    uint256 public totalVote;\r\n    uint256 public totalBet;\r\n\r\n    event Deposit(address indexed from, uint256 amount);\r\n\r\n    constructor() {\r\n        owner = msg.sender;\r\n    }\r\n\r\n    struct Persona {\r\n        uint256 depositedAprove;\r\n        uint256 depositedDisaprove;\r\n        address wallet;\r\n    }\r\n\r\n    struct Id {\r\n        uint256 id;\r\n        address ownerContract;\r\n        uint256 totalDeposited;\r\n        uint256 totalAprove;\r\n        uint256 totalDisaprove;\r\n        uint256 like;\r\n        string type_;\r\n    }\r\n\r\n    mapping(uint => mapping(uint => Persona)) public Contrato;\r\n    mapping(uint256 => Id) public totalPersona;\r\n    mapping(uint => mapping(uint => Comment)) public NewPost;\r\n    mapping(uint256 => Post) public contratoPost;\r\n    mapping(uint => mapping(uint => Comment)) public NewCode;\r\n    mapping(uint256 => Code) public contratoCode;\r\n    mapping(uint => mapping(uint => Comment)) public NewVote;\r\n    mapping(uint256 => Vote) public contratoVote;\r\n    mapping(uint => mapping(uint => Comment)) public NewBet;\r\n    mapping(uint256 => Bet) public contratoBet;\r\n\r\n\r\n    struct Post {\r\n        string title;\r\n        string content;\r\n        uint256 comments;\r\n        address wallet;\r\n    }\r\n\r\n    struct Code {\r\n            string title;\r\n            string code;\r\n            uint256 comments;\r\n            address wallet;\r\n        }\r\n\r\n    struct Vote {\r\n        string title;\r\n        string question;\r\n        string optionA;\r\n        string optionB;\r\n        uint256 comments;\r\n        address wallet;\r\n    }\r\n    \r\n    struct Bet {\r\n        string title;\r\n        string bet;\r\n        string resultA;\r\n        string resultB;\r\n        string date;\r\n        uint256 comments;\r\n        address wallet;\r\n    }\r\n\r\n    struct Comment {\r\n        string date;\r\n        address wallet;\r\n    }\r\n\r\n    function setPost(string memory type_post,string memory title,string memory content) public {\r\n\r\n        if (keccak256(abi.encodePacked(type_post)) == keccak256(abi.encodePacked(\"Post\"))) {\r\n            totalContrato++;\r\n            totalPersona[totalContrato] = Id(\r\n                0,\r\n                msg.sender,\r\n                0,\r\n                0,\r\n                0,\r\n                0,\r\n                type_post\r\n            );\r\n\r\n            totalPost++;\r\n            contratoPost[totalPost] = Post(\r\n                title,\r\n                content,\r\n                0,\r\n               msg.sender\r\n            );\r\n\r\n        } \r\n       \r\n    }\r\n\r\n    function setPostComment(uint256 contrato,string memory comment) public {\r\n\r\n            NewPost[contrato][contratoPost[contrato].comments] = Comment(\r\n                   \r\n                    comment,\r\n                    msg.sender\r\n            );\r\n             contratoPost[contrato].comments++;\r\n        \r\n    }\r\n\r\n       \r\n    \r\n    function getPost(uint256 contrato) public view returns ( string memory, string memory, address)  {\r\n\r\n        require(contrato <= totalPost, \"Indice fuera de rango\");\r\n            Post memory post = contratoPost[contrato];\r\n            return (\r\n                post.title,\r\n                post.content,\r\n                post.wallet\r\n        );\r\n            \r\n    }\r\n\r\n     function getPostComment(uint256 contrato,uint256 comentario) public view returns ( string memory, address)  {\r\n\r\n        require(contrato <= contratoPost[contrato].comments, \"Indice fuera de rango\");\r\n            Comment memory comment = NewPost[contrato][comentario];\r\n            return (\r\n                comment.date,\r\n                comment.wallet\r\n        );\r\n            \r\n    }\r\n\r\n      function setCode(string memory type_post,string memory title,string memory content) public {\r\n\r\n        if (keccak256(abi.encodePacked(type_post)) == keccak256(abi.encodePacked(\"Code\"))) {\r\n            totalContrato++;\r\n            totalPersona[totalContrato] = Id(\r\n                0,\r\n                msg.sender,\r\n                0,\r\n                0,\r\n                0,\r\n                0,\r\n                type_post\r\n            );\r\n\r\n            totalCode++;\r\n            contratoCode[totalCode] = Code(\r\n                title,\r\n                content,\r\n                0,\r\n               msg.sender\r\n            );\r\n\r\n        } \r\n       \r\n    }\r\n\r\n    function setCodeComment(uint256 contrato,string memory comment) public {\r\n\r\n            NewCode[contrato][contratoCode[contrato].comments] = Comment(\r\n                   \r\n                    comment,\r\n                    msg.sender\r\n            );\r\n             contratoCode[contrato].comments++;\r\n        \r\n    }\r\n\r\n       \r\n    \r\n    function getCode(uint256 contrato) public view returns ( string memory, string memory, address)  {\r\n\r\n        require(contrato <= totalCode, \"Indice fuera de rango\");\r\n            Code memory cod = contratoCode[contrato];\r\n            return (\r\n                cod.title,\r\n                cod.code,\r\n                cod.wallet\r\n        );\r\n            \r\n    }\r\n\r\n     function getCodeComment(uint256 contrato,uint256 comentario) public view returns ( string memory, address)  {\r\n\r\n        require(contrato <= contratoCode[contrato].comments, \"Indice fuera de rango\");\r\n            Comment memory comment = NewCode[contrato][comentario];\r\n            return (\r\n                comment.date,\r\n                comment.wallet\r\n        );\r\n            \r\n    }\r\n\r\n     function setVote(string memory type_post,string memory title,string memory question,string memory optionA,string memory optionB) public {\r\n\r\n        if (keccak256(abi.encodePacked(type_post)) == keccak256(abi.encodePacked(\"Vote\"))) {\r\n            totalContrato++;\r\n            totalPersona[totalContrato] = Id(\r\n                0,\r\n                msg.sender,\r\n                0,\r\n                0,\r\n                0,\r\n                0,\r\n                type_post\r\n            );\r\n\r\n            totalVote++;\r\n            contratoVote[totalVote] = Vote(\r\n                title,\r\n                question,\r\n                optionA,\r\n                optionB,\r\n                0,\r\n               msg.sender\r\n            );\r\n\r\n        } \r\n       \r\n    }\r\n\r\n    function setVoteComment(uint256 contrato,string memory comment) public {\r\n\r\n            NewVote[contrato][contratoVote[contrato].comments] = Comment(\r\n                   \r\n                    comment,\r\n                    msg.sender\r\n            );\r\n             contratoVote[contrato].comments++;\r\n        \r\n    }\r\n\r\n       \r\n    \r\n    function getVote(uint256 contrato) public view returns ( string memory, string memory,string memory,string memory, address)  {\r\n\r\n        require(contrato <= totalVote, \"Indice fuera de rango\");\r\n            Vote memory vot = contratoVote[contrato];\r\n            return (\r\n                vot.title,\r\n                vot.question,\r\n                vot.optionA,\r\n                vot.optionB,\r\n                vot.wallet\r\n        );\r\n            \r\n    }\r\n\r\n     function getVoteComment(uint256 contrato,uint256 comentario) public view returns ( string memory, address)  {\r\n\r\n        require(contrato <= contratoVote[contrato].comments, \"Indice fuera de rango\");\r\n            Comment memory comment = NewVote[contrato][comentario];\r\n            return (\r\n                comment.date,\r\n                comment.wallet\r\n        );\r\n            \r\n    }\r\n\r\n     function setBet(string memory type_post,string memory title,string memory bet,string memory resultA,string memory resultB,string memory date) public {\r\n\r\n        if (keccak256(abi.encodePacked(type_post)) == keccak256(abi.encodePacked(\"Bet\"))) {\r\n            totalContrato++;\r\n            totalPersona[totalContrato] = Id(\r\n                0,\r\n                msg.sender,\r\n                0,\r\n                0,\r\n                0,\r\n                0,\r\n                type_post\r\n            );\r\n\r\n            totalBet++;\r\n            contratoBet[totalBet] = Bet(\r\n                title,\r\n                bet,\r\n                resultA,\r\n                resultB,\r\n                date,\r\n                0,\r\n               msg.sender\r\n            );\r\n\r\n        } \r\n       \r\n    }\r\n\r\n    function setBetComment(uint256 contrato,string memory comment) public {\r\n\r\n            NewBet[contrato][contratoBet[contrato].comments] = Comment(\r\n                   \r\n                    comment,\r\n                    msg.sender\r\n            );\r\n             contratoBet[contrato].comments++;\r\n        \r\n    }\r\n\r\n       \r\n    \r\n    function getBet(uint256 contrato) public view returns ( string memory, string memory,string memory,string memory,string memory, address)  {\r\n\r\n        require(contrato <= totalBet, \"Indice fuera de rango\");\r\n            Bet memory bett = contratoBet[contrato];\r\n            return (\r\n                bett.title,\r\n                bett.bet,\r\n                bett.resultA,\r\n                bett.resultB,\r\n                bett.date,\r\n                bett.wallet\r\n        );\r\n            \r\n    }\r\n\r\n     function getBetComment(uint256 contrato,uint256 comentario) public view returns ( string memory, address)  {\r\n\r\n        require(contrato <= contratoBet[contrato].comments, \"Indice fuera de rango\");\r\n            Comment memory comment = NewBet[contrato][comentario];\r\n            return (\r\n                comment.date,\r\n                comment.wallet\r\n        );\r\n            \r\n    }\r\n\r\n    \r\n     function getContratos(uint256 contrato) public view returns (uint256,string memory)  {\r\n\r\n         return (totalContrato,totalPersona[contrato].type_);\r\n            \r\n    }\r\n    //si idContract es igual a 0 , se hace  \r\n    //bolean para depositedAprove,depositedDisaprove para hacer multiples transacciones\r\n    function depositContract(uint256 idContract, string memory deposited) external payable {//10000000000000000\r\n    //0x2646c2ACe34fB61c4DE4d003d71a20906aEe81c5\r\n        //require(idContract < totalContrato, \"Indice fuera de rango en Contrato\");\r\n\r\n        if(idContract>0&&msg.value>0){\r\n\r\n            Contrato[idContract][totalPersona[idContract].id].wallet=msg.sender;\r\n\r\n            if (keccak256(abi.encodePacked(deposited)) == keccak256(abi.encodePacked(\"Aprove\"))) {\r\n\r\n                Contrato[idContract][totalPersona[idContract].id].depositedAprove += msg.value;\r\n                totalPersona[idContract].totalAprove+= msg.value;\r\n                } \r\n\r\n            else if (keccak256(abi.encodePacked(deposited)) == keccak256(abi.encodePacked(\"Disaprove\"))) {\r\n                \r\n                Contrato[idContract][totalPersona[idContract].id].depositedDisaprove += msg.value;\r\n                totalPersona[idContract].totalDisaprove+= msg.value;\r\n\r\n             }\r\n\r\n            totalPersona[idContract].id++;\r\n            totalPersona[idContract].totalDeposited += msg.value;\r\n\r\n            emit Deposit(msg.sender,msg.value);\r\n\r\n        }\r\n\r\n    }\r\n\r\n    //condicional dividir el total depositado entre el numero de wallets \r\n    //entregar reglias dependiendo de la cantidad depositada\r\n    function withdrawBet(uint256 idContrato,string memory win) external {\r\n        \r\n      //  require(msg.sender == totalPersona[idContrato].ownerContract, \"Solo el propietario puede realizar\");\r\n        //require(idContrato < totalContrato, \"Indice fuera de rango en Contrato\");\r\n        //require(totalPersona[idContrato].totalDeposited!=0, \"Deposito vacio\");\r\n\r\n        uint256 pay;\r\n        if(totalPersona[idContrato].totalDeposited!=0&&totalPersona[idContrato].ownerContract==msg.sender){\r\n                              \r\n            for(uint i=0;int(i)<=int(totalPersona[idContrato].id);i++){\r\n                if (keccak256(abi.encodePacked(win)) == keccak256(abi.encodePacked(\"Aprove\"))&&int(Contrato[idContrato][i].depositedAprove)!=0) {\r\n                    \r\n                    pay=totalPersona[idContrato].totalDeposited*Contrato[idContrato][i].depositedAprove/totalPersona[idContrato].totalAprove;\r\n                    payable(Contrato[idContrato][i].wallet).transfer(pay);\r\n\r\n                } else if (keccak256(abi.encodePacked(win)) == keccak256(abi.encodePacked(\"Disaprove\"))&&int(Contrato[idContrato][i].depositedDisaprove)!=0) {\r\n                    pay=totalPersona[idContrato].totalDeposited*Contrato[idContrato][i].depositedDisaprove/totalPersona[idContrato].totalDisaprove;\r\n                    payable(Contrato[idContrato][i].wallet).transfer(pay);\r\n                }\r\n            }\r\n            totalPersona[idContrato].totalDeposited=0;\r\n            totalPersona[idContrato].totalAprove= 0;\r\n            totalPersona[idContrato].totalDisaprove= 0;\r\n            pay = totalPersona[idContrato].like;\r\n            payable(totalPersona[idContrato].ownerContract).transfer(pay);\r\n            totalPersona[idContrato].like=0;\r\n        }\r\n       \r\n    }\r\n\r\n     function withdrawVote(uint256 idContrato) external {\r\n\r\n        uint256 pay;\r\n        if(totalPersona[idContrato].totalDeposited!=0&&totalPersona[idContrato].ownerContract==msg.sender){\r\n            \r\n            pay=totalPersona[idContrato].totalDeposited/totalPersona[idContrato].id;\r\n         \r\n            for(uint i=0;int(i)<=int(totalPersona[idContrato].id-1);i++){\r\n\r\n                    payable(Contrato[idContrato][i].wallet).transfer(pay);\r\n\r\n            }\r\n            totalPersona[idContrato].totalDeposited=0;\r\n            totalPersona[idContrato].totalAprove= 0;\r\n            totalPersona[idContrato].totalDisaprove= 0;\r\n            pay = totalPersona[idContrato].like;\r\n            payable(totalPersona[idContrato].ownerContract).transfer(pay);\r\n            totalPersona[idContrato].like=0;\r\n        }\r\n       \r\n    }\r\n\r\n    function withdraw(uint256 idContrato) external {\r\n        \r\n        uint256 pay;\r\n        pay = totalPersona[idContrato].like;\r\n        payable(totalPersona[idContrato].ownerContract).transfer(pay);\r\n        totalPersona[idContrato].like=0;\r\n       \r\n    }\r\n\r\n     function deposit(address payable usser ) external payable {\r\n       usser.transfer(msg.value);\r\n    }\r\n\r\n  function like(uint256 idContract ) external payable {\r\n       \r\n        totalPersona[idContract].like += msg.value;\r\n        emit Deposit(msg.sender,msg.value);\r\n    }\r\n}",
  "sourcePath": "C:\\Users\\Tona\\Desktop\\Chismesito\\AuroraSocial\\contracts\\AuroraSocial.sol",
  "compiler": {
    "name": "solc",
    "version": "0.8.5+commit.a4f2e591.Emscripten.clang"
  },
  "schemaVersion": "3.4.14",
  "updatedAt": "2023-06-25T07:15:25.326Z",
  "networkType": "ethereum",
  "devdoc": {
    "kind": "dev",
    "methods": {},
    "version": 1
  },
  "userdoc": {
    "kind": "user",
    "methods": {},
    "version": 1
  }
}