{
  "contractName": "DataBase",
  "abi": [
    {
      "inputs": [
        {
          "internalType": "uint256",
          "name": "",
          "type": "uint256"
        }
      ],
      "name": "personas",
      "outputs": [
        {
          "internalType": "string",
          "name": "usuario",
          "type": "string"
        },
        {
          "internalType": "string",
          "name": "correo",
          "type": "string"
        },
        {
          "internalType": "address",
          "name": "wallet",
          "type": "address"
        }
      ],
      "stateMutability": "view",
      "type": "function",
      "constant": true
    },
    {
      "inputs": [],
      "name": "totalPersonas",
      "outputs": [
        {
          "internalType": "uint256",
          "name": "",
          "type": "uint256"
        }
      ],
      "stateMutability": "view",
      "type": "function",
      "constant": true
    },
    {
      "inputs": [
        {
          "internalType": "string",
          "name": "_usuario",
          "type": "string"
        },
        {
          "internalType": "string",
          "name": "_correo",
          "type": "string"
        },
        {
          "internalType": "address",
          "name": "_wallet",
          "type": "address"
        }
      ],
      "name": "setPersona",
      "outputs": [],
      "stateMutability": "nonpayable",
      "type": "function"
    },
    {
      "inputs": [
        {
          "internalType": "uint256",
          "name": "_indice",
          "type": "uint256"
        }
      ],
      "name": "getPersona",
      "outputs": [
        {
          "internalType": "string",
          "name": "",
          "type": "string"
        },
        {
          "internalType": "string",
          "name": "",
          "type": "string"
        },
        {
          "internalType": "address",
          "name": "",
          "type": "address"
        }
      ],
      "stateMutability": "view",
      "type": "function",
      "constant": true
    },
    {
      "inputs": [
        {
          "internalType": "uint256",
          "name": "_indice",
          "type": "uint256"
        }
      ],
      "name": "getCorreo",
      "outputs": [
        {
          "internalType": "string",
          "name": "",
          "type": "string"
        }
      ],
      "stateMutability": "view",
      "type": "function",
      "constant": true
    },
    {
      "inputs": [
        {
          "internalType": "uint256",
          "name": "_indice",
          "type": "uint256"
        },
        {
          "internalType": "string",
          "name": "_correo",
          "type": "string"
        }
      ],
      "name": "setCorreo",
      "outputs": [],
      "stateMutability": "nonpayable",
      "type": "function"
    },
    {
      "inputs": [
        {
          "internalType": "uint256",
          "name": "_indice",
          "type": "uint256"
        }
      ],
      "name": "getUsuario",
      "outputs": [
        {
          "internalType": "string",
          "name": "",
          "type": "string"
        }
      ],
      "stateMutability": "view",
      "type": "function",
      "constant": true
    },
    {
      "inputs": [
        {
          "internalType": "uint256",
          "name": "_indice",
          "type": "uint256"
        },
        {
          "internalType": "string",
          "name": "_usuario",
          "type": "string"
        }
      ],
      "name": "setUsuario",
      "outputs": [],
      "stateMutability": "nonpayable",
      "type": "function"
    },
    {
      "inputs": [
        {
          "internalType": "uint256",
          "name": "_indice",
          "type": "uint256"
        }
      ],
      "name": "getWallet",
      "outputs": [
        {
          "internalType": "address",
          "name": "",
          "type": "address"
        }
      ],
      "stateMutability": "view",
      "type": "function",
      "constant": true
    }
  ],
  "bytecode": "0x608060405234801561001057600080fd5b50610f5d806100206000396000f3fe608060405234801561001057600080fd5b50600436106100935760003560e01c8063508607041161006657806350860704146101365780635470b13b14610152578063af2b9f8814610182578063b51cf23a146101b2578063fdd7b2f9146101e257610093565b80631138b36e1461009857806314f9dc8b146100b4578063399a2b7a146100e657806340291e6a14610104575b600080fd5b6100b260048036038101906100ad9190610aef565b6101fe565b005b6100ce60048036038101906100c99190610ac2565b61022c565b6040516100dd93929190610c02565b60405180910390f35b6100ee61042d565b6040516100fb9190610c67565b60405180910390f35b61011e60048036038101906101199190610ac2565b610433565b60405161012d93929190610c02565b60405180910390f35b610150600480360381019061014b9190610aef565b61058d565b005b61016c60048036038101906101679190610ac2565b6105bb565b6040516101799190610bc5565b60405180910390f35b61019c60048036038101906101979190610ac2565b61063e565b6040516101a99190610be0565b60405180910390f35b6101cc60048036038101906101c79190610ac2565b610729565b6040516101d99190610be0565b60405180910390f35b6101fc60048036038101906101f79190610a37565b610814565b005b8060008084815260200190815260200160002060000190805190602001906102279291906108fa565b505050565b60608060006001548410610275576040517f08c379a000000000000000000000000000000000000000000000000000000000815260040161026c90610c47565b60405180910390fd5b60008060008681526020019081526020016000206040518060600160405290816000820180546102a490610d72565b80601f01602080910402602001604051908101604052809291908181526020018280546102d090610d72565b801561031d5780601f106102f25761010080835404028352916020019161031d565b820191906000526020600020905b81548152906001019060200180831161030057829003601f168201915b5050505050815260200160018201805461033690610d72565b80601f016020809104026020016040519081016040528092919081815260200182805461036290610d72565b80156103af5780601f10610384576101008083540402835291602001916103af565b820191906000526020600020905b81548152906001019060200180831161039257829003601f168201915b505050505081526020016002820160009054906101000a900473ffffffffffffffffffffffffffffffffffffffff1673ffffffffffffffffffffffffffffffffffffffff1673ffffffffffffffffffffffffffffffffffffffff16815250509050806000015181602001518260400151935093509350509193909250565b60015481565b600060205280600052604060002060009150905080600001805461045690610d72565b80601f016020809104026020016040519081016040528092919081815260200182805461048290610d72565b80156104cf5780601f106104a4576101008083540402835291602001916104cf565b820191906000526020600020905b8154815290600101906020018083116104b257829003601f168201915b5050505050908060010180546104e490610d72565b80601f016020809104026020016040519081016040528092919081815260200182805461051090610d72565b801561055d5780601f106105325761010080835404028352916020019161055d565b820191906000526020600020905b81548152906001019060200180831161054057829003601f168201915b5050505050908060020160009054906101000a900473ffffffffffffffffffffffffffffffffffffffff16905083565b8060008084815260200190815260200160002060010190805190602001906105b69291906108fa565b505050565b60006001548210610601576040517f08c379a00000000000000000000000000000000000000000000000000000000081526004016105f890610c47565b60405180910390fd5b60008083815260200190815260200160002060020160009054906101000a900473ffffffffffffffffffffffffffffffffffffffff169050919050565b60606001548210610684576040517f08c379a000000000000000000000000000000000000000000000000000000000815260040161067b90610c47565b60405180910390fd5b60008083815260200190815260200160002060010180546106a490610d72565b80601f01602080910402602001604051908101604052809291908181526020018280546106d090610d72565b801561071d5780601f106106f25761010080835404028352916020019161071d565b820191906000526020600020905b81548152906001019060200180831161070057829003601f168201915b50505050509050919050565b6060600154821061076f576040517f08c379a000000000000000000000000000000000000000000000000000000000815260040161076690610c47565b60405180910390fd5b600080838152602001908152602001600020600001805461078f90610d72565b80601f01602080910402602001604051908101604052809291908181526020018280546107bb90610d72565b80156108085780601f106107dd57610100808354040283529160200191610808565b820191906000526020600020905b8154815290600101906020018083116107eb57829003601f168201915b50505050509050919050565b60405180606001604052808481526020018381526020018273ffffffffffffffffffffffffffffffffffffffff16815250600080600154815260200190815260200160002060008201518160000190805190602001906108759291906108fa565b5060208201518160010190805190602001906108929291906108fa565b5060408201518160020160006101000a81548173ffffffffffffffffffffffffffffffffffffffff021916908373ffffffffffffffffffffffffffffffffffffffff160217905550905050600160008154809291906108f090610dd5565b9190505550505050565b82805461090690610d72565b90600052602060002090601f016020900481019282610928576000855561096f565b82601f1061094157805160ff191683800117855561096f565b8280016001018555821561096f579182015b8281111561096e578251825591602001919060010190610953565b5b50905061097c9190610980565b5090565b5b80821115610999576000816000905550600101610981565b5090565b60006109b06109ab84610ca7565b610c82565b9050828152602081018484840111156109cc576109cb610eb0565b5b6109d7848285610d30565b509392505050565b6000813590506109ee81610ef9565b92915050565b600082601f830112610a0957610a08610eab565b5b8135610a1984826020860161099d565b91505092915050565b600081359050610a3181610f10565b92915050565b600080600060608486031215610a5057610a4f610eba565b5b600084013567ffffffffffffffff811115610a6e57610a6d610eb5565b5b610a7a868287016109f4565b935050602084013567ffffffffffffffff811115610a9b57610a9a610eb5565b5b610aa7868287016109f4565b9250506040610ab8868287016109df565b9150509250925092565b600060208284031215610ad857610ad7610eba565b5b6000610ae684828501610a22565b91505092915050565b60008060408385031215610b0657610b05610eba565b5b6000610b1485828601610a22565b925050602083013567ffffffffffffffff811115610b3557610b34610eb5565b5b610b41858286016109f4565b9150509250929050565b610b5481610cf4565b82525050565b6000610b6582610cd8565b610b6f8185610ce3565b9350610b7f818560208601610d3f565b610b8881610ebf565b840191505092915050565b6000610ba0601583610ce3565b9150610bab82610ed0565b602082019050919050565b610bbf81610d26565b82525050565b6000602082019050610bda6000830184610b4b565b92915050565b60006020820190508181036000830152610bfa8184610b5a565b905092915050565b60006060820190508181036000830152610c1c8186610b5a565b90508181036020830152610c308185610b5a565b9050610c3f6040830184610b4b565b949350505050565b60006020820190508181036000830152610c6081610b93565b9050919050565b6000602082019050610c7c6000830184610bb6565b92915050565b6000610c8c610c9d565b9050610c988282610da4565b919050565b6000604051905090565b600067ffffffffffffffff821115610cc257610cc1610e7c565b5b610ccb82610ebf565b9050602081019050919050565b600081519050919050565b600082825260208201905092915050565b6000610cff82610d06565b9050919050565b600073ffffffffffffffffffffffffffffffffffffffff82169050919050565b6000819050919050565b82818337600083830152505050565b60005b83811015610d5d578082015181840152602081019050610d42565b83811115610d6c576000848401525b50505050565b60006002820490506001821680610d8a57607f821691505b60208210811415610d9e57610d9d610e4d565b5b50919050565b610dad82610ebf565b810181811067ffffffffffffffff82111715610dcc57610dcb610e7c565b5b80604052505050565b6000610de082610d26565b91507fffffffffffffffffffffffffffffffffffffffffffffffffffffffffffffffff821415610e1357610e12610e1e565b5b600182019050919050565b7f4e487b7100000000000000000000000000000000000000000000000000000000600052601160045260246000fd5b7f4e487b7100000000000000000000000000000000000000000000000000000000600052602260045260246000fd5b7f4e487b7100000000000000000000000000000000000000000000000000000000600052604160045260246000fd5b600080fd5b600080fd5b600080fd5b600080fd5b6000601f19601f8301169050919050565b7f496e646963652066756572612064652072616e676f0000000000000000000000600082015250565b610f0281610cf4565b8114610f0d57600080fd5b50565b610f1981610d26565b8114610f2457600080fd5b5056fea26469706673582212202093582208846cf47712ccb457c9906c8d7ecf133e4ac66a3a7735db93dc0de464736f6c63430008050033",
  "immutableReferences": {},
  "source": "// SPDX-License-Identifier: MIT\r\npragma solidity ^0.8.0;\r\n//Crear matriz \r\ncontract DataBase {\r\n\r\n   struct Persona {\r\n        string usuario;     \r\n        string correo;\r\n        address wallet;\r\n    }\r\n\r\n    mapping(uint256 => Persona) public personas;\r\n    uint256 public totalPersonas;\r\n\r\n     function setPersona(\r\n        string memory _usuario,\r\n        string memory _correo,\r\n        address _wallet\r\n    ) public {\r\n        personas[totalPersonas] = Persona(\r\n  \r\n             _usuario,\r\n             _correo,\r\n            _wallet\r\n        );\r\n        totalPersonas++;\r\n    }\r\n\r\n    function getPersona(uint256 _indice)\r\n        public\r\n        view\r\n        returns (\r\n            string memory,\r\n            string memory,\r\n            address\r\n        )\r\n    {\r\n        require(_indice < totalPersonas, \"Indice fuera de rango\");\r\n        Persona memory persona = personas[_indice];\r\n        return (\r\n\r\n            persona.usuario,\r\n            persona.correo,\r\n            persona.wallet\r\n        );\r\n    }\r\n\r\n\r\n    function getCorreo(uint256 _indice)\r\n        public\r\n        view\r\n        returns (\r\n            string memory\r\n        )\r\n    {\r\n        require(_indice < totalPersonas, \"Indice fuera de rango\");\r\n   \r\n           return personas[_indice].correo;\r\n\r\n    }\r\n\r\n    function setCorreo(\r\n        uint256 _indice,string memory _correo\r\n\r\n    ) public {\r\n        personas[_indice].correo = _correo;\r\n    }\r\n\r\n    function getUsuario(uint256 _indice)\r\n        public\r\n        view\r\n        returns (\r\n            string memory\r\n        )\r\n    {\r\n        require(_indice < totalPersonas, \"Indice fuera de rango\");\r\n       \r\n           return personas[_indice].usuario;\r\n     }\r\n\r\n    function setUsuario(\r\n        uint256 _indice,string memory _usuario\r\n\r\n    ) public {\r\n        personas[_indice].usuario = _usuario;\r\n    }\r\n\r\n    function getWallet(uint256 _indice)\r\n        public\r\n        view\r\n        returns (\r\n            address\r\n        )\r\n    {\r\n        require(_indice < totalPersonas, \"Indice fuera de rango\");\r\n    \r\n           return personas[_indice].wallet;\r\n    }\r\n\r\n}",
  "sourcePath": "C:\\Users\\Tona\\Desktop\\Chismesito\\AuroraSocial\\contracts\\DataBase.sol",
  "compiler": {
    "name": "solc",
    "version": "0.8.5+commit.a4f2e591.Emscripten.clang"
  },
  "schemaVersion": "3.4.14",
  "updatedAt": "2023-06-25T07:15:00.634Z",
  "networkType": "ethereum",
  "devdoc": {
    "kind": "dev",
    "methods": {},
    "version": 1
  },
  "userdoc": {
    "kind": "user",
    "methods": {},
    "version": 1
  }
}